:020000040800F2
:10000000C0400020250400080B4A0008FD400008FD
:10001000094A0008DF20000809600008000000000D
:100020000000000000000000000000006503000860
:100030002F22000800000000C103000851520008F0
:100040003F0400080D4A00083F0400083F04000870
:100050003F0400083F0400083F0400083F04000874
:100060003F0400083F0400083F040008E1200008A6
:100070003F0400083F0400083F0400083F04000854
:100080003F040008000000003F0400083F0400088F
:100090003F0400083F0400083F0400083F04000834
:1000A0003F0400083F0400083F0400083F04000824
:1000B000E15200083F0400083F0400083F04000824
:1000C0003F0400083F0400083F0400083F04000804
:1000D0003F040008D95E00083F0400083F04000800
:1000E0003F0400083F0400083F0400083F040008E4
:1000F0003F0400083F0400083F040008000000001F
:10010000000000003F040008000000003F04000859
:100110003F04000800000000ED520008F9520008FA
:100120003F0400083F0400083F0400083F040008A3
:100130003F04000800000000000000003F04000829
:100140003F0400083F040008000000000000000019
:10015000000000000000000000000000000000009F
:100160000000000000000000000000003F04000844
:100170003F04000800000000000000000000000034
:10018000000000003F040008000000000000000024
:10019000000000000000000000000000000000005F
:1001A00000000000000000003F0400083F040008B9
:1001B0003F0400083F0400083F040008000000005E
:1001C000000000003F0400080000000000000000E4
:1001D0003F0400083F04000800F002F800F0B2F805
:1001E0000AA090E8000C82448344AAF10107DA4592
:1001F00001D100F0A7F8AFF2090EBAE80F0013F032
:10020000010F18BFFB1A43F001031847B099000013
:10021000D09900000A444FF0000C10F8013B13F095
:10022000070408BF10F8014B1D1108BF10F8015B4F
:10023000641E05D010F8016B641E01F8016BF9D142
:1002400013F0080F1EBF10F8014BAD1C0C1B09D199
:100250006D1E58BF01F801CBFAD505E014F8016B0B
:1002600001F8016B6D1EF9D59142D6D3704700009D
:100270000023002400250026103A28BF78C1FBD8AF
:10028000520728BF30C148BF0B6070476E2900F08D
:100290000785702900F07582662908F0FC816529C0
:1002A00008F0F981672908F0F681612908F0F581E5
:1002B00003681B0A28BF41F08001692900F0E6812C
:1002C000642900F0E381752900F0E0816F2900F0D6
:1002D000F485782900F04182E92900F08F85E4292E
:1002E00000F08C85F52900F08985EF2900F0F18573
:1002F000F82900F040820368DB0928BF41F0800143
:10030000632900F01085732900F01585E32901F0B9
:10031000F981F32901F0FE81002070471FB508F034
:10032000B5F901F049FA04000020002108F098F91D
:10033000401C60600020002108F07CF9E0601FBDD7
:1003400010B510BD01F00AFA1146FFF7E7FF06F0FD
:1003500073FB01F0E7FA03B4FFF7F2FF03BC01F00F
:10036000EFFA00002C4B19680868B0E8F04F80F3F2
:100370000988BFF36F8F4FF0000080F3118870473A
:100380000000000008480068006880F308884FF00B
:10039000000080F3148862B661B6BFF34F8FBFF3DD
:1003A0006F8F00DF00BF00BF08ED00E0DFF80C003A
:1003B000016841F470010160704700BF88ED00E002
:1003C000EFF30980BFF36F8F134B1A681EF0100F05
:1003D00008BF20ED108A20E9F04F106009B44FF0FB
:1003E000500080F31188BFF34F8FBFF36F8F07F07A
:1003F0008DFA4FF0000080F3118809BC1968086875
:10040000B0E8F04F1EF0100F08BFB0EC108A80F378
:100410000988BFF36F8F704720000020EFF305803D
:10042000704700000948804709480047FEE7FEE79B
:10043000FEE7FEE7FEE7FEE7FEE7FEE7FEE7FEE794
:1004400004480549054A064B70470000D152000890
:10045000D9010008C03A0020C0400020C03C002064
:10046000C03C002053EA020C00F069802DE9F04BFB
:100470004FF00006002B1FBFB3FA83F503FA05F413
:1004800024FA05F65E4012BF1643B2FA82F502FA6C
:1004900005F4C5F120051EBF22FA05FC44EA0C0450
:1004A000203556EA044C4FEA144418BF641C4FF040
:1004B00000084FF00009904271EB030C39D300297A
:1004C00019BFB1FA81F701FA07F6B0FA80F700FA1E
:1004D00007F6C7F120071EBF20FA07FC46EA0C0604
:1004E0002037B6FBF4FCA7EB0507103F07F01F0B06
:1004F000CBF120060CFA0BFB2CFA06F644BFB346F0
:100500000026202FA4BF5E464FF0000B5BEA060CCE
:1005100008BF4FF0010B19EB0B09ABFB027C48EB5A
:100520000608C01B06FB02CC0BFB03CC71EB0C01D5
:10053000C1E70B46024641464846BDE8F08B13B57D
:100540004FF000004FF00001AFF30080BDE81C4009
:10055000704700007CB51D4616460C00009001D087
:100560002044401E074B7B442A4669460190304692
:1005700000F0AFFB05461CB10020694600F0BCFB53
:1005800028467CBD990700000FB41CB5084B06AA8D
:100590007B4469460090059800F09BFB04460020D0
:1005A000694600F0A9FB20461CBC5DF814FB000066
:1005B000650700000FB47CB50C0009AA009001D0BB
:1005C0002044401E084B7B4469460190089800F087
:1005D00080FB05461CB10020694600F08DFB2846D3
:1005E0007CBC5DF814FB00003907000070B50446C0
:1005F00085690068C10601D5302600E02026C007C5
:1006000007D070BDD4E9012130469047206A401CD4
:1006100020626D1EF6D570BD70B504468569007800
:10062000C00707D170BDD4E9012120209047206A7E
:10063000401C20626D1EF6D570BD70B50C46054697
:10064000012A05D02878800600D5EA69002302E057
:10065000012305E05B1C934202D2E05C0028F9D143
:10066000A869E618C01AA861286A184428622846B2
:10067000FFF7BCFF04E0D5E9012114F8010B904716
:10068000B442F8D32846FFF7C7FF70BD2DE9F0410B
:100690000646002410687529314616A510D000F0D2
:1006A00094FA002802DA404213A507E031688A076D
:1006B00001D512A502E0490704D511A5012401E0E6
:1006C00000F08CFA00210A2206F1240709E0B0FBB1
:1006D000F2FCB0FBF2F302FB1C00303078541846F9
:1006E000491C0028F3D123462A463046BDE8F04194
:1006F00000F07DBA000000002D0000002B0000007B
:1007000020000000F0B40D460188090502D5214CF7
:100710007C4402E01F4C7C440E34002100F124068E
:1007200008E002F00F071209E75D42EA03721B09B5
:100730007754491C52EA0307F3D1027800231207C9
:1007400004D5702D06D009B1022311342246F0BC25
:1007500000F04DBA01231034F8E770B504460D4699
:100760002146106800F03AFA024629462046BDE8C4
:1007700070400023C6E7D21D22F00703D3E900230F
:10078000C0E70368126843F0200303600823C361D5
:100790000023B7E7549300002DE9F05F8946044633
:1007A0004FF0000ADFF874B1FB44C0F820A02046E7
:1007B000E1688847002874D0252806D0D4E90121B3
:1007C0009047206A401C2062F1E700265F462046E1
:1007D000E16888472028054607DB312D05D27819C6
:1007E00010F8200C08B10643F1E7B00701D526F058
:1007F0000406C4F81CA00027C4F818A02A2D09D0AC
:10080000284605F02AFC38B304EB8708303DC8F8C9
:10081000185019E059F8041B204604EB8702916137
:10082000E1688847012F054618D1E069002820DAE1
:1008300026F020061DE0D8F8180000EB800005EB3C
:1008400040003038C8F818002046E168884705465F
:1008500005F003FC0028EED1012F0AD02E2D08D17F
:100860002046E16888477F1C0546022F46F0200697
:10087000C4DBA069002803DA404246F00106A0610B
:10088000F00701D026F010066C2D0BD0682D09D092
:100890004C2D39D06A2D35D0742D35D07A2D33D0EA
:1008A00016E038E0E1682F4620468847B842054602
:1008B00009D16C2F26D04FF48060E16806432046B2
:1008C0008847054604E06C2F1AD04FF48070064329
:1008D0000DB3A5F14100192802D8203546F4006671
:1008E0004A462946204626604E46FFF7CFFC80B197
:1008F00001280BD0F61D26F0070000F1080956E785
:100900004020E4E78020D8E70020D6E706F104097C
:100910004DE7284652E7206ABDE8F09FE4920000C8
:1009200030B505460B462A4613F8014B12F8010B69
:1009300008B1A042F8D01CB1002802D06D1CF1E72C
:10094000284630BD10B5431C02E010F8011B71B100
:100950008107FAD14FF0013202C88C1A8C4314EA95
:10096000C211F9D0C01A0A0603D0C01E10BDC01AA9
:1009700010BD0A0401D0801E10BD0902FCD0401E2B
:1009800010BD40EA010370B59B072ED14FF0013630
:10099000042A2AD308C810C99D1B9D43121F15EABB
:1009A000C61517D0D8B2E1B2401A50EA056110D18D
:1009B00098B2A1B2401A50EA05410AD123F07F4013
:1009C00024F07F41401A50EA052102D1180EA0EB15
:1009D000146070BDA342DBD018BA21BA884201D995
:1009E000012070BD4FF0FF3070BD0AB9002070BD0E
:1009F00010F8013B11F8014B63B1A3420AD1521E1A
:100A000008D010F8013B11F8014B1BB1A34201D1F2
:100A1000521EEDD1181B70BD032A40F2308010F039
:100A2000030C00F0158011F8013BBCF1020F624489
:100A300098BF11F801CB00F8013B38BF11F8013B1A
:100A4000A2F1040298BF00F801CB38BF00F8013BC7
:100A500011F0030300F04882083AC0F0088051F812
:100A6000043B083A51F804CBA0E80810F5E7121D42
:100A70005CBF51F8043B40F8043BAFF30080D20761
:100A800024BF11F8013B11F801CB48BF11F8012B2D
:100A900024BF00F8013B00F801CB48BF00F8012B50
:100AA000704702F0FF0343EA032242EA024200F0E9
:100AB00002B84FF000020429C0F0128010F0030CBD
:100AC00000F01B80CCF1040CBCF1020F18BF00F841
:100AD000012BA8BF20F8022BA1EB0C0100F00DB8F0
:100AE0005FEAC17C24BF00F8012B00F8012B48BF4E
:100AF00000F8012B70474FF0000200B513469446F2
:100B00009646203922BFA0E80C50A0E80C50B1F165
:100B10002001BFF4F7AF090728BFA0E80C5048BF79
:100B20000CC05DF804EB890028BF40F8042B08BF17
:100B3000704748BF20F8022B11F0804F18BF00F813
:100B4000012B70474FF0013C50F8042B51F8043B47
:100B50009A4221D1A2EB0C03934313EACC1317D191
:100B600050F8042B51F8043B9A4215D1A2EB0C0328
:100B7000934313EACC130BD150F8042B51F8043BE8
:100B80009A4209D1A2EB0C03934313EACC13DBD0B6
:100B90004FF00000704700BFD01A01BAB1FA81F1DE
:100BA00001F0180122FA01F0CB40C1F12001DBB2C3
:100BB000C0B2C01A2CFA01F3D11A914311EAC31141
:100BC000E6D1704770477047704709684A0501D5FC
:100BD00040B27047C905FCD500B2704709684A05A4
:100BE00001D5C0B27047C905FCD580B270472DE968
:100BF000F0470D4699469246044600F124080168E4
:100C0000880604D5E06921F01001216000E0012090
:100C1000A84201DD471B00E00027A1697A1902EB19
:100C20000900081AA0612078C00602D42046FFF708
:100C3000DDFC002608E0D4E901211AF806009047FF
:100C4000206A401C761C20624E45F4DB2078C006EA
:100C50000AD52046FFF7CAFC06E0D4E9012130207E
:100C60009047206A401C2062381EA7F10107F4DC7F
:100C700007E0D4E9012118F805009047206A401CDC
:100C80002062281EA5F10105F3DC2046FFF7C4FC15
:100C90002078000602D50220BDE8F0870120FBE79E
:100CA00011680268006A530501D508700AE0D3058F
:100CB00001D5088006E0130603D5C217C1E900027A
:100CC00000E008600120704701694A1C0261087851
:100CD000704700B58FB0CDE901310021059105497C
:100CE0007944CDE9031011466846FFF755FD0FB072
:100CF00000BD0000E5FFFFFF0A6802F8010B0A6073
:100D00007047D1E900239A4202D2531C0B60107045
:100D1000704710B5436913B1AFF3008001E0FFF7EE
:100D20008CFC012010BD127800F124010A70002211
:100D30004A700122EDE711684FF0FF32E9E7000049
:100D40002DE9FF5F15468A460446DFF8AC80F8447B
:100D50000027D8E900103E46CDE9001010E03AF82F
:100D600016106A4602A800F0D9FC411C07D0217871
:100D7000890603D5E269391891420DD80744761CDB
:100D80002078800602D5E069B84205DDAE42E6DB98
:100D90003AF816000028E2D1A069C01BA0612046E5
:100DA000FFF724FCD8E90010CDE90010002017E07F
:100DB0003AF818106A4602A800F0B0FCB0F1FF3F04
:100DC00081460BD000250DF1080B05E0D4E9012187
:100DD0001BF8050090476D1C4D45F7D308F1010045
:100DE000B0428046E4DB206A384420622046FFF7A8
:100DF00013FCBDE8FF9F0000528D00002DE9F0417B
:100E00008046D21D22F007020025D2E90002F52912
:100E100015A614D0011E72F1000106DA0023D0EBF2
:100E2000030063EB020211A608E0D8F800108B075C
:100E300001D50FA602E0490701D50EA601251146EE
:100E4000002408F1240704E000F080F830323A551D
:100E5000641C50EA0102F7D12B4632462146404637
:100E6000BDE8F041FFF7C3BE000000002D00000008
:100E70002B0000002000000030B4002100F1240409
:100E800008E002F00705D208303542EA4372DB0879
:100E90006554491C52EA0305F3D10468002310A2EB
:100EA000250707D5A40600D421B1C46901230DA2EA
:100EB000641EC46130BCFFF79ABE10B504462146DB
:100EC0001068FFF78BFE02462046BDE81040002365
:100ED000D2E7D21D22F00701D1E90023CCE70000C0
:100EE000000000003000000010B5203AC0F00B8078
:100EF000B1E81850203AA0E81850B1E81850A0E81E
:100F00001850BFF4F5AF5FEA027C24BFB1E8185077
:100F1000A0E8185044BF18C918C0BDE810405FEAE7
:100F2000827C24BF51F8043B40F8043B08BF704763
:100F3000D20728BF31F8023B48BF11F8012B28BF68
:100F400020F8023B48BF00F8012B704730B5B0F1E4
:100F50000A024FEA900E71F100034EEA817EB0EB77
:100F60000E0061EB91014FEA101E4EEA017E10EB7C
:100F70000E0041EB11114FEA102E4EEA016E10EBFC
:100F80000E0041EB11214FEA104E4EEA014E10EBDC
:100F90000E0041EB1141401841F100014FEAD00031
:100FA00040EA41704FEAD10110EB80054FEA81041D
:100FB00044EA907444EB01046D1944EB0404521BA1
:100FC000A3414FF0000348BF0A3200D530BD401C9A
:100FD00041F1000130BD70472DE9FF4F0C461E4620
:100FE0004FF0FF378BB0D2E90001DDF860800A9046
:100FF0008A46C1F30A5505B93D46002108464FF01F
:101000000000BAF1000F00F4400005DA00EB8000A8
:101010004FF4400101EA50004FEA9059B9F1010F35
:1010200000DDB9460A9850EA4A000ED044F6105046
:10103000A5F2FF3545432F14B8F1000F1ED07542BD
:10104000291E1EDDC9F100021CE0B8F1010F4FF0AE
:10105000000001D0302103E0F24305E02154401CA0
:10106000B042FBDB30460022002121540B99C1F82D
:101070000880C1E900200FB0BDE8F08FBD1B6D1CDA
:10108000DEE74A4600DA694206A800F0D9FB06AB63
:1010900093E8070003AB83E8070050460A9900F085
:1010A00056FC8DE80700A0F500501F38009003980B
:1010B000002D0ADD42F21F014A460844002303A91D
:1010C0000390684600F0BFFE09E0A0F500504A46D4
:1010D0001F38002303A90390684600F0C9FE8DE87D
:1010E00007000004000C03D04FF0FF30410800E07F
:1010F0001046B8F1000F03D00022009215461EE002
:10110000751E05D4FFF722FF303262556D1EF9D5EA
:10111000B3460122084302D000227F1C04E020785D
:10112000302801D100227F1E002A099784D01DE0BB
:10113000112D07DAFFF70AFF303262556D1C50EAB5
:101140000102F5D1084302D00098C8B10EE0002199
:10115000681E05E0235C625C63542254401E491CF7
:101160008142F7DBAB46A81B401E0990002004F823
:101170000B000B98099AC0F80880C0E9002B7AE7A9
:1011800011264FF0000857E72DE9F04F8846044636
:10119000D21D22F0070191B0D1E90001CDE90A0189
:1011A00004F033FF02460B98C00F01D02D2007E05A
:1011B0002068810701D52B2002E0202101EAC00030
:1011C000032A099001D0072A05DB03464146204641
:1011D00000F0F6FA0BE12078800601D5E06900E026
:1011E0000620B8F1650F814606D0B8F1660F18D019
:1011F000B8F1670F70D131E00020B9F1110F009004
:1012000001DB112301E009F101030AAA01A90CA8DD
:10121000FFF7E2FEDDE90C70002609F101058346C7
:1012200047E001204B4600904FF000470AAA01A971
:101230000CA8FFF7D1FEDDE90DB00C995D46002644
:1012400010B909F101000D18B9EB050003D4C0F184
:10125000FF3609F10105A5EB09002BE0B9F1010FFB
:1012600001DA4FF001090020B9F1110F0090484652
:1012700001DD112300E003460AAA01A90CA8FFF72B
:10128000ABFEDDE90C704D46002683462078000752
:101290000AD4AB4500DA5D4601A8012D04DD4119F1
:1012A00011F8011C302907D04F4502DA17F1040F5D
:1012B00004DA012082460FE06D1EEEE7002F02DC0B
:1012C000ED1B3E4403E0781CA84200DD7D1CB81BEA
:1012D00000F1010A4FF000472078000703D4AA4527
:1012E00001DB4FF0FF3A0021B7F1004F0DF1430849
:1012F0008DF8431024D002202B23002F01DA7F42E7
:101300002D230A21021EA0F1010000DC5FB197FB32
:10131000F1FC97FBF1F201FB1C7C17460CF1300C41
:1013200008F801CDEEE7A8F1010003702188090556
:1013300001D5452100E06521A0F1010800F8011C5C
:1013400009980FA9A1EB0807FF1D00B10120411961
:1013500001EBEA70A1693844081A401EA0612078A8
:10136000C00602D42046FFF741F9099828B1D4E914
:1013700001219047206A401C20622078C00622D5B7
:101380002046FFF733F91EE0002E04DBB34502DDF3
:1013900001A8805D00E03020D4E901219047206A57
:1013A000401C2062761CAAF101005FEA000A0AD103
:1013B00000F002FAC0680168405CD4E9012190475E
:1013C000206A401C2062281EA5F10105DCDC07E034
:1013D000D4E9012118F8010B9047206A401C2062D3
:1013E000381EA7F10107F3DC2046FFF715F90320AB
:1013F00011B041E62DE9F04F04460D46D21D22F012
:10140000070089B0D0E900974846394604F0FDFD51
:101410000246F80F01D02D2307E02068810701D58F
:101420002B2302E0202101EAC0038DF820300BB10C
:10143000012000E00020032A824601D0072A04DBB5
:101440002946204600F0BCF93FE12078800601D40F
:101450000D2500E0E569C7F30A560D2D49DA002194
:101460004FEA175B08464FF00000002F00F44000E1
:1014700007DA00EB80004FF4400100EBD07001EA86
:1014800060008115012901DD4FF0FF3100224FEA94
:10149000850CBCF1180F06D31346ACF118004FF0C1
:1014A0008052C24003E04FF4801323FA0CF30CF196
:1014B0000C0CBCF1200F04D3ACF1200C09FA0CF099
:1014C00001E007FA0CF000294FF0004801DD18B9DF
:1014D0000FE00ED140450CD319EB02095F4121B951
:1014E000404502D19F4329EA0209BBEB175F00D0B8
:1014F000761C2088000502D57B48784402E07A48B3
:101500007844193808AA302302F80A30037C0AF11B
:101510000101002E0AF1020A53546A4602DC4FF020
:10152000300101E04FF031014FF001088DF800105B
:1015300002D0A6F2FF3603E059EA470100D06B4E15
:10154000002D02DC2178090704D54FF002082E2176
:101550008DF80110C44600210BE0C7F303433F019F
:10156000C35C491C6D1E02F80830052908F101080A
:1015700001DA002DF1DC00210CE000EB1973491CAD
:101580001B786D1E082902F808304FEA091908F186
:10159000010801DA002DF0DC21688B0602D516E087
:1015A000A8F10108E04505DD02EB080313F8013C52
:1015B000302BF5D0B8F1000F09DD02EB080313F86A
:1015C000013C2E2B03D1090701D4A8F10108002DFD
:1015D00005DD3E2102F808106D1E08F10108407C6F
:1015E000002E02F8080008F1010804DA2D207642E6
:1015F00002F8080002E02B2002F808000A214FF44C
:101600007A70864208F101080BDB96FBF0F3303369
:1016100002F8083096FBF0F308F1010800FB1366AE
:1016200001E0642E0CDB642096FBF0F3303302F80B
:10163000083096FBF0F308F1010800FB136601E0A7
:101640000A2E06DB96FBF1F0303002F8080008F1B4
:10165000010896FBF1F001FB1060303002F8080041
:10166000A16908F1010808EB050202EB0A00081A5B
:10167000A0612078C00602D42046FEF7B7FF216A99
:1016800008AE01EB0A00206204E0D4E9012116F85B
:10169000010B9047BAF1010AF7D22078C00602D5B3
:1016A0002046FEF7A3FF6E4609E016F8010B3E2820
:1016B0000FD0D4E901219047206A401C2062B8F184
:1016C0000108F2D22046FEF7A7FF09B00320BDE8CB
:1016D000F08F206A2844206203E0D4E90121302001
:1016E00090476D1EEBD3F8E7C185000002FCFFFFB9
:1016F00010B5436913B1AFF3008001E0FFF720FBA1
:10170000012010BD128800F1240182840022C284CD
:101710000122EDE711684FF0FF32E9E770B5164698
:101720000C46054600F040F8036893F801010128D3
:1017300006D0FF2C0FD8185D68B101202C7070BD49
:10174000D3F807013246214603F207130344284623
:10175000BDE8704018474FF0FF3070BD754600F08F
:10176000EBF8AE4605006946534620F00700854673
:1017700018B020B5FEF764FEBDE820404FF000062B
:101780004FF000074FF000084FF0000B21F0070169
:10179000AC46ACE8C009ACE8C009ACE8C009ACE8AC
:1017A000C0098D467047000010B500F005F8001D17
:1017B00010BD00BFAD6E000000487047803A0020A9
:1017C0002DE9F0411F46044603260168072A01F46B
:1017D000006004DB08B116A505E016A503E008B11A
:1017E00015A500E015A521F010002060A069C01E1D
:1017F000A0610FB1401EA0612046FEF7F7FE4FB179
:10180000D4E9012138469047206A401C2062C01C60
:10181000206206E0206AFAE7D4E9012115F8010BFD
:101820009047761EF8D22046FEF7F6FEBDE8F0811E
:101830004E414E006E616E00494E4600696E660074
:101840002DE9F047814616468AB0354878440DC8E0
:101850008DE80D0032487844801C03AC0DC884E844
:101860000D0041F69B300844372190FBF1F290FBCC
:10187000F1F5A5F1800501FB12041B3C02D5644281
:10188000012000E00020DFF898A080460027FA44FD
:10189000AAF1BE0A0EE0E0070AD03246684607EB1E
:1018A000470101230AEB810100F0E2FA8DE807000D
:1018B00064107F1C002CEED1194F7F44AE3F19E01D
:1018C000E80715D007EB04100DF1180A90E80E0098
:1018D0008AE80E00C068F04201D19819089032469B
:1018E000012306A903A800F0C3FA03AB83E80700AD
:1018F0006D10641C002DE3D14FF0010332466946A0
:10190000B8F1000F03A802D000F09DFA01E000F04A
:10191000AFFAC9E90001C9F808200AB0BDE8F087AC
:101920000083000010B50446AFF300802046BDE8F8
:101930001040FEF710BD000000487047603A0020DC
:1019400001491820ABBEFEE72600020070475FEA9F
:10195000400C08BF91F0000F4FEA8C234FEAC122E0
:1019600043EA51514FEA1C5018BF00F5F0404FEACE
:10197000300018BF41F000415FEA6C5C00F0298044
:10198000BCF1FF3F08BF40F080407047130C06BF1A
:1019900012044FF0100C4FF0000C130E04BF120293
:1019A0000CF1080C130F04BF12010CF1040C930F7F
:1019B00004BF92000CF1020CD30F04BF52000CF1D3
:1019C000010C11464FF00002A0F11F00A0EB0C002B
:1019D000704711F0004F08BF704731F000413FF4ED
:1019E000D5AF0B0C06BF09044FF0100C4FF0000CE4
:1019F0000B0E04BF09020CF1080C0B0F04BF090108
:101A00000CF1040C8B0F04BF89000CF1020CCB0FFE
:101A100004BF49000CF1010CCCF12003A0EB0C0039
:101A200022FA03F302FA0CF241EA030100F1010089
:101A3000704720F07F4C80EA030023F07F47ACEB37
:101A4000070303F57C5300F0004003F1FF032DE989
:101A500080494FEA154B09B44FEA144325EA0B4E6F
:101A600024EA03480FF2042606EB132749083E78C0
:101A70005FEA320203FB0667C7F5000707FB06F6BD
:101A80004FEA54374FEAD64606F1020607FB066CCA
:101A9000CCF1005C4FEA1C472CEA074C07FB06F42C
:101AA0000CFB06F504EB15464FEA961634BF0020F2
:101AB0004FF000404FEAD13706FB07FC4FEA1C4CC1
:101AC0000CFB0BF7D21B03FB0CF761EB07010CFBC4
:101AD0000EF7B0EB074072EB17420CFB08F734BF70
:101AE000A2EB0742B2EB074261EB17414FEA0C440D
:101AF0004FEA910706FB07FC4FEA1C4C0CFB0BF767
:101B0000B0EBC74072EB573203FB0CF734BFA2EBCC
:101B1000C742B2EBC74261EB57310CFB0EF7B0EB9B
:101B2000C70072EB57720CFB08F734BFA2EBC70279
:101B3000B2EBC70261EB5771039F4FEA816141EA43
:101B4000921104EBCC044FEAD1374FEA826206FBD4
:101B500007FC42EA90124FEA80604FEA1C4C0CFBF3
:101B60000BF7D21B03FB0CF761EB07010CFB0EF725
:101B7000B0EB074072EB17420CFB08F734BFA2EB47
:101B80000742B2EB074261EB17414FEA8C554FEA2F
:101B9000910704EB9C2406FB07FC4FEA1C4C0CFB52
:101BA0000BF7B0EBC74072EB573203FB0CF734BFB7
:101BB000A2EBC742B2EBC74261EB57310CFB0EF709
:101BC000B0EBC70072EB57720CFB08F734BFA2EB07
:101BD000C702B2EBC70261EB577115EB4C254FEA18
:101BE000816141EA92114FEA82624FEAD13742EABB
:101BF000901206FB07FC44F100044FEA80604FEAB4
:101C00001C4C0CFB0BF7D21B03FB0CF761EB070121
:101C10000CFB0EF7B0EB074072EB17420CFB08F71A
:101C200034BFA2EB0742B2EB074261EB174115EB61
:101C30001C154FEA813141EA92414FEA823242EA71
:101C400090424FEA80304FEA0C7644F1000448EAB3
:101C500003434EEA0B484FF0000EB2EB080C71EB59
:101C6000030724BF624639464EEB0E0E4FF0000BC1
:101C70000018524149414BEB0B0BB2EB080C71EBD6
:101C800003077BF1000B24BF624639464EEB0E0E74
:101C90004FF0000B0018524149414BEB0B0BB2EBDC
:101CA000080C71EB03077BF1000B24BF6246394639
:101CB0004EEB0E0E51EA020718BF46F0010616EB76
:101CC0000E7655F1000254F1000103D5BDE88901FB
:101CD000BDE80088BDE88901BDE80048B619524159
:101CE00041EB0101A3F10103704780807F7E7D7C81
:101CF0007B7A7978777676757473727171706F6E9E
:101D00006E6D6C6C6B6A6A69686867666665646448
:101D1000636362616160605F5F5E5E5D5D5C5C5BD2
:101D20005B5A5A5959585857575656555555545441
:101D3000535352525251515050504F4F4F4E4E4D9F
:101D40004D4D4C4C4C4B4B4B4A4A4A4949494848EB
:101D5000484747474746464645454544444444432B
:101D600043434342424242414141002B9C4630D4CE
:101D700077002BD01CB54FEA370703B44FF01000A3
:101D80004FF01001BAF1000F06D0BCF1000FDCBF1C
:101D900040F0080040F008014FF000000FBCBDE823
:101DA00010400BF1010BBBF1010F08BF5FEA1707F1
:101DB00022BF12F1010211F101014FF0004143F184
:101DC000000300F0004043EA00007047F9D35708D1
:101DD000D0E746EA064613F1400F4FEA16461FDDEC
:101DE00013F1200FDFBF16430A46002120335B4268
:101DF000BED0C3F1200746EA064602FA07F74FEACB
:101E0000164646EA0706C3F1200722FA03F201FA52
:101E100007F721FA03F14FF0000342EA0702A7E7B0
:101E200046EA020646EA06464FEA164646EA010632
:101E3000BCBF46EA0646360C4FF000034FF00002E6
:101E40004FF0000194E72DE9804C9A46934670B418
:101E500091E8380007C831EA400C48BF34EA430C27
:101E600003D5FFF7E6FDFFF780FFF0BCBDE8008C6F
:101E70002DE9804C9A46934670B491E8380007C823
:101E800010F0804F08BF13F0804F03D100F005F829
:101E9000FFF76BFFF0BCBDE8008C20F07F4780EAC5
:101EA000030023F07F4C07EB0C03A3F57C5300F0F9
:101EB0000040A3F1FE0392F0000F00F0B38095F014
:101EC000000F00F077802DE901494FEA11404FEAF9
:101ED000144621EA004800FB06FC24EA064708FBFA
:101EE00006F607FB08F800FB07F718EB06484CEB73
:101EF000164C4FEA124B18EB07484FEA15464CEBCD
:101F0000174022EA0B4E0BFB06FC25EA06470EFBA8
:101F100006F607FB0EFE0BFB07F71EEB064E4CEB1F
:101F2000164C4FF000061EEB074E4CEB174B18EB10
:101F30000B0840F1000018EB0E0B58EB000840F1C5
:101F400000008F1A4FF000013CBFC943661B14BF4D
:101F5000B5EB040C00213CBFC943F61B4FEA174404
:101F60004EEA8E0E27EA04454FEA1C4704FB07623F
:101F70002CEA074C05FB07F70CFB05F604FB0CFCF1
:101F800016EB074642EB174216EB0C4642EB1C429F
:101F90001BEB060658EB0202414146EA9E0601D5BC
:101FA000BDE80189B619524141EB0101A3F10103DA
:101FB000BDE801894FEA14454FEA114724EA054676
:101FC00021EA074C05FB07F406FB07F70CFB06F1BB
:101FD00005FB0CFC11EB074144EB17444FEA124799
:101FE00011EB0C4144EB1C4422EA074C05FB07F2C1
:101FF00006FB07F70CFB06F605FB0CFC16EB074689
:1020000042EB174216EB0C4642EB1C456A1854F1A2
:10201000000148BF7047B619524141EB0101A3F1DD
:102020000103704795F0000F37D04FEA11424FEA95
:10203000144721EA024624EA074C02FB07F106FB9B
:1020400007F70CFB06F402FB0CFC14EB074441EB16
:1020500017414FEA154714EB0C4441EB1C4125EAAC
:10206000074C02FB07F506FB07F70CFB06F602FB25
:102070000CFC16EB074645EB174516EB0C4645EBFB
:102080001C42121951F1000148BF7047B619524164
:1020900041EB0101A3F1010370474FEA14454FEAF8
:1020A000114724EA054621EA074C05FB07F106FB28
:1020B00007F70CFB06F24FF0000605FB0CFC12EBD9
:1020C000074241EB174112EB0C4251EB1C4148BF58
:1020D0007047921841EB0101A3F101037047FEE73D
:1020E0001CB50CA1D120CDE90001134B13A21AA1FC
:1020F000002004F06BF8194800F01EF918A1D52053
:10210000CDE900010C4B0DA213A1002004F05EF8F4
:102110001CBD0000444D41315F4368616E6E656CCB
:10212000315F49525148616E646C657220656E740E
:102130006572656400000000EE8600082E2E2F43B5
:102140006F72652F5372632F73746D3332673478F7
:10215000785F69742E63000049525100100400201A
:10216000444D41315F4368616E6E656C315F495229
:102170005148616E646C6572206578697400000076
:1021800010B501680E4CCAB21423083AA14203D21A
:10219000B2FBF3F20B4904E0B2FBF3F20949203140
:1021A000921D436C02F01F0223F003031944816463
:1021B00004498031C16401219140016510BD0000D6
:1021C00008040240000802400179084A01F07F013A
:1021D00002EB81024265054A4432491E826501F0E4
:1021E0001F0201219140C16570470000FC080240B8
:1021F00030B5D0E913456560446D14B1D0E916459A
:10220000656090F8444004F01F050124AC40056C63
:102210006C60046863608368102B036803D0996066
:102220000068C26030BD9A600068C16030BD704710
:10223000002240F6B83306E00021491C89B29942D9
:10224000FBD3521C92B28242F6D3704772B6FEE7BD
:1022500010B5002140B190F825300122022B05D0A5
:102260000421C163012124E0012010BD03681C6822
:1022700024F001041C6003681C6824F00E041C6038
:10228000836C1C6824F480741C6090F84430046CE7
:1022900003F01F0302FA03F36360D0E913345C60B8
:1022A000436D33B11C6824F480741C60D0E916348B
:1022B0005C6080F82520002280F82420084610BDAC
:1022C00070B590F82520002401212346022A07D06A
:1022D0000422C26380F8251080F82430012429E00C
:1022E0000268156825F0010515600268156825F07B
:1022F0000E051560826C156825F48075156090F8E0
:102300004420056C02F01F0201FA02F26A60D0E973
:1023100013255560426D32B1156825F4807515603E
:10232000D0E91625556080F8251080F82430816B9F
:1023300001B18847204670BDF0B4016C0C6801689B
:102340000D6890F8442002F01F06042202FA06F3FA
:10235000234211D06B070FD50B689B0603D40B6883
:1023600023F004030B6090F8441001F01F018A4031
:10237000016C4A60016B1DE0022303FA06F7274255
:102380004FF0000C4FF0010218D0AF0716D50C68C3
:10239000A40605D40C6824F00A040C6080F82520FB
:1023A00090F8441001F01F018B40016C4B6080F8E5
:1023B00024C0C16A00291AD0F0BC08470823B340E2
:1023C000234214D02B0712D50B6823F00E030B60A9
:1023D00090F84410036C01F01F0102FA01F15960FA
:1023E000C26380F8252080F824C0416BE2E7F0BC8E
:1023F0007047000070B504000CD02C4A21681420EE
:10240000914209D22A4A0A44B2FBF0F0800060648B
:1024100028480AE0012070BD244A52420A44B2FB17
:10242000F0F080006064214808382064022084F8BD
:1024300025000A6847F6F0708243D4E90203184386
:10244000D4E904352B431843A3691843E3691843BF
:10245000236A1843104308602046FFF791FEA068E6
:102460000025B0F5804F00D165602079A16C00F0A7
:102470007F000860D4E9130141606068401E0328B2
:1024800008D82046FFF7A0FE606D0560D4E916016C
:10249000416002E06565A565E565E563012084F8B6
:1024A000250084F82450002070BD0000080402407C
:1024B000F8FFFDBF0000024070B5044690F824000C
:1024C000002501280CD0012084F8240094F8256010
:1024D0000020012E06D084F824000225284670BD75
:1024E000022070BD022684F82560E063206806683B
:1024F00026F0010606602046FFF77AFE206B0028D2
:102500002068016802D041F00E0106E021F00401CC
:1025100001602068016841F00A010160A06C016857
:10252000C90303D5016841F480710160606D18B181
:10253000016841F4807101602068016841F0010187
:102540000160CBE770B5044600F032F90546601C27
:1025500002D004484068044400F02AF9401BA0421D
:10256000FAD370BD100000202DE9F04FDFF80C9277
:10257000002301260325A9F1040B85B00F2709F1DB
:10258000040AABF1040EF1E006FA03FC12EA0C02B5
:102590007ED00C7904F00304012C01D0022C20D150
:1025A000846800945C0005FA04F80494009C24EA12
:1025B00008040094D1F80C80049C08FA04F8009CEC
:1025C00048EA0408C0F80880446824EA0C0491F83A
:1025D00004C0CCF3001C0CFA03FC4CEA040CC0F859
:1025E00004C00C79E443A40702D18C68012C0ED0FE
:1025F000C4684FEA430805FA08FC24EA0C04D1F841
:1026000008C00CFA08FC4CEA040CC0F80CC00C79A9
:1026100004F00304022C16D1DC0800EB840CCDF886
:1026200008C0DCF820C05C074FEAD46807FA08F459
:102630002CEA040C0C6904FA08F444EA0C04DDF8F2
:1026400008C0CCF8204004684FEA430805FA08FCAB
:1026500024EA0C0491F804C00CF0030C0CFA08FCFA
:102660004CEA040CC0F800C04C6814F4403F7CD025
:10267000434CD4F860C04CF0010CC4F860C0246E28
:1026800023F0030C04F0010400943E4C644400E089
:102690006BE00294A4684FEA837C4FEA1C7807FA47
:1026A00008FC24EA0C04B0F1904F06D0DFF8D8C043
:1026B000604505D14FF0010C20E04FF0000C1DE00B
:1026C000DFF8C8C0604502D14FF0020C16E0DFF819
:1026D000C0C0604502D14FF0030C0FE0DFF8B4C07A
:1026E000604502D14FF0040C08E0DFF8ACC0604553
:1026F00002D14FF0050C01E04FF0060C0CFA08FC7B
:102700004CEA040C029CC4F808C0D9F80040CC463E
:10271000D1F8048094435FEAC82800D51443CCF86C
:102720000040DAF80040D446D1F8048094435FEAD0
:10273000882800D51443CCF80040DBF80040DC4684
:10274000D1F8048094435FEA883800D51443CCF86C
:102750000040DEF80040F446D1F8048094435FEA7C
:10276000C83800D51443CCF800405B1C0C682246E6
:10277000DC407FF409AF05B0BDE8F08F08040140EC
:10278000001002400000014000040048000800481A
:10279000000C004800100048001400480069084080
:1027A00000D0012070470AB1816170478162704793
:1027B00001488068704700001000002002488168CE
:1027C00042681144816070471000002010B5002459
:1027D000032000F081F80F2000F008F808B1012470
:1027E00001E000F025F8204610BD000070B50E4E47
:1027F00005460024706898B14FF47A71B1FBF0F08F
:102800000A490968B1FBF0F000F09EFD40B9102DB7
:1028100006D200222946501E00F03EF8356000E046
:102820000124204670BD0000100000201C00002084
:10283000114808B5016E41F001010166016E01F019
:1028400001010091816D41F080518165806D002210
:1028500000F0805000900F21901E00F01DF8002223
:102860000521012000F018F8012000F007F8BDE86C
:10287000084000F0A1B8000000100240002809DB69
:1028800000F01F02012191404009800000F1E0208A
:10289000C0F8001170470000F0B40E4B1B680C46E6
:1028A000C3F30223C3F10705042D00D90425191D24
:1028B000072901D2002300E0DB1E012606FA05F1FC
:1028C000491E214099409E40761E16403143F0BC7F
:1028D00003F0B3BB0CED00E0064900F00702086806
:1028E0004FF6FF03184040EA0220034A10430860F5
:1028F000704700000CED00E00000FA052B492C4B5E
:102900000A6832214A432B4940B1B0F5007F08687C
:1029100029D020F4C06040F480602CE00868C0F347
:102920004120022804D051F8800F20F4807022E06A
:10293000D1F8800020F48070C1F88000086820F48D
:10294000C06040F400700860B2FBF3F0401C00E08F
:10295000401E4A69520501D50028F9D14869400551
:102960000AD503207047C0F34120022806D051F851
:10297000800F40F48070086000207047D1F880001C
:1029800040F48070C1F88000086820F4C06040F412
:1029900000700860B2FBF3F0401C00E0401E4A6982
:1029A0005205DBD50028F9D1D8E700001C00002033
:1029B00040420F00007000400248816841F48041AD
:1029C000816070470070004010B5144C2068C0034F
:1029D00004D500F029F84FF4803020600F4C2034EB
:1029E0002068000703D500F01BF80820206020684D
:1029F000C00603D500F015F810202060206880067E
:102A000003D500F00FF8202020602068400603D591
:102A100000F009F84020206010BD000014040140BF
:102A20007047704770477047704700002DE9F843C2
:102A30000446006800269D4D00035ED5A86D002762
:102A4000C00008D4A86D40F08050A865A86D01278B
:102A500000F080500090DFF85892D9F8001041F44F
:102A60008071C9F80010FFF7A3FE804606E000BFA2
:102A7000FFF79EFEA0EB080002282BD8D9F8000033
:102A8000C005F5D5D5F8900010F4407014D0216C35
:102A9000814211D0D5F89000D5F8901020F4407004
:102AA00041F48031C5F89010D5F8901021F48031B0
:102AB000C5F89010C5F89000C00711D0FFF778FE58
:102AC000804641F2883907E0FFF772FEA0EB08016B
:102AD000494501D903260BE0D5F890008007F3D5CE
:102AE000D5F89000216C20F440700843C5F89000A0
:102AF0001FB1A86D20F08050A8652078C00707D0CE
:102B0000D5F88800616820F003000843C5F8880004
:102B10002078800707D5D5F88800A16820F00C0040
:102B20000843C5F888002078400707D5D5F8880005
:102B3000E16820F030000843C5F8880020780007DD
:102B400007D5D5F88800216920F0C0000843C5F8F2
:102B500088002078800607D5D5F88800616920F4C0
:102B600040600843C5F888002078400607D5D5F8AE
:102B70008800A16920F440500843C5F888002078F7
:102B8000000607D5D5F88800E16920F440400843E5
:102B9000C5F888002088C00507D5D5F88800216AC7
:102BA00020F440300843C5F888002088800507D508
:102BB000D5F88800616A20F440200843C5F88800F1
:102BC000208840050FD5D5F88800A16A20F4401070
:102BD0000843C5F88800A06AB0F5801F03D1E868F3
:102BE00040F48010E860208800050FD5D5F88800F3
:102BF000E16A20F440000843C5F88800E06AB0F5B7
:102C0000800F03D1E86840F48010E8602088C00499
:102C10000FD5D5F88800216B20F040700843C5F827
:102C20008800206BB0F1807F03D1E86840F4801009
:102C3000E86020884FF0006180040ED5D5F8880048
:102C4000626B20F040601043C5F88800606B8842DA
:102C500003D1E86840F48010E860208840040ED575
:102C6000D5F88800A26B20F040601043C5F88800BA
:102C7000A06B884203D1E86840F48010E8602088A7
:102C800000040FD5D5F88800E16B20F040500843D0
:102C9000C5F88800E06BB0F1805F03D1E86840F4CC
:102CA0008030E8603046BDE8F88300000010024044
:102CB000007000402DE9F0470E4605004FF0000778
:102CC00025D0DFF8AC81D8F8000000F00F00B0424A
:102CD0000CD2D8F8001021F00F013143C8F80010D1
:102CE000D8F8000000F00F00B04210D12968614C04
:102CF000C80741F2883A5AD06868DFF87C91032807
:102D000008D0022820682DD0400500282CDB0120A7
:102D1000BDE8F08720688001F9D5E06800F0030283
:102D2000E068C0F30310401C032A19D0534A00BFC7
:102D3000B2FBF0F0E268C2F306225043E268C2F34D
:102D40004162521C5200B0FBF2F0484517D9A0680E
:102D500010F0F00F0CD0880711D5A86840B10EE034
:102D6000474AE5E78003D0E700F0B6F8484506D9C2
:102D7000A06820F0F00040F08000A0608027A068EC
:102D8000696820F003000843A060FFF711FD814649
:102D900006E000BFFFF70CFDA0EB090151453AD852
:102DA000A068696800F00C00B0EB810FF2D12868D0
:102DB000810714D5400703D5A06840F4E060A06007
:102DC0002878000705D5A06820F4605040F4E06042
:102DD000A060A068A96820F0F000084304E0802FFC
:102DE00003D1A06820F0F000A060D8F800104046A1
:102DF00001F00F01B14216D9016821F00F013143F2
:102E00000160FFF7D5FC074607E000BFFFF7D0FCE5
:102E1000C11B514501D903207AE7D8F8000000F022
:102E20000F00B042F2D12878400705D5A068E968C4
:102E300020F4E0600843A0602878000706D5A06869
:102E4000296920F4605040EAC100A06000F044F815
:102E5000A1680C4AC1F30311515C01F01F01C84085
:102E60000949086009480068BDE8F047FFF7BEBCA3
:102E7000002002400010024000B4C4040024F4000A
:102E800000127A00308700081C000020100000208B
:102E90000548064900688968054AC1F30221515C6A
:102EA00001F01F01C84070471C00002000100240C4
:102EB000408700080548064900688968054AC1F34B
:102EC000C221515C01F01F01C84070471C00002066
:102ED0000010024040870008184910B58868C0F308
:102EE00081021748012A0BD08A684310C2F381027D
:102EF000022A06D08A68C2F38102032A03D0002086
:102F000010BD184610BDCA6802F00304CA68C2F3B7
:102F10000312521C032C02D0B0FBF2F001E0B3FB11
:102F2000F2F0CA68C968C2F306225043C1F3416196
:102F3000491C4900B0FBF1F010BD00000010024038
:102F40000024F4002DE9F84304007AD02078F84DED
:102F5000C00747D0A868E96800F00C0001F0030141
:102F60000C2802D0082817D001E0032914D060688B
:102F7000B0F5803F17D0B0F5A02F286817D020F407
:102F800080302860286820F4802028606068E0B1E4
:102F9000FFF70EFC064614E02868800322D560681F
:102FA0000028D2D01EE0286840F48030EDE740F4DD
:102FB00080202860F7E700BFFFF7FAFB801B64283A
:102FC00070D828688003F7D50CE0FFF7F1FB0646C0
:102FD00005E000BFFFF7ECFB801B6428F0D82868F1
:102FE0008003F7D4207880074CD5A868E96800F002
:102FF0000C0001F003010C2802D004280DD001E0E0
:1030000002290AD0E068002828682BD040F480709C
:103010002860FFF7CDFB064619E02868400502D579
:10302000E068002891D06868217C20F0FE4040EAEA
:1030300001606860BF480068FFF7D8FB002800D136
:1030400020E072E1FFF7B4FB801B0228B8D82868A3
:103050004005F7D56868217C20F0FE4040EA016019
:1030600068600FE020F480702860FFF7A1FB06463F
:1030700005E000BFFFF79CFB801B0228A0D8286852
:103080004005F7D42078000729D560690028D5F8D5
:10309000940013D040F00100C5F89400FFF788FBBE
:1030A000064606E090E000BFFFF782FB801B022887
:1030B00086D8D5F894008007F6D510E020F00100FE
:1030C000C5F89400FFF774FB064604E0FFF770FBB9
:1030D000801B022878D8D5F894008007F6D4207891
:1030E000400761D5A86D0026C00008D4A86D40F047
:1030F0008050A865A86D012600F0805000908E4891
:103100000168C90511D40168804641F480710160ED
:10311000FFF74EFB074604E0FFF74AFBC01B0228FF
:1031200052D8D8F80000C005F6D5A068012815D0FF
:103130000528D5F8900016D020F00100C5F89000C1
:10314000D5F8900020F00400C5F89000A06841F286
:103150008838B8B1FFF72CFB07460EE0D5F8900091
:1031600040F00100F0E740F00400C5F89000F5E7FA
:10317000FFF71EFBC11B414526D8D5F890008007FC
:10318000F6D50CE0FFF714FB074604E0FFF710FB51
:10319000C11B414518D8D5F890008007F6D41EB160
:1031A000A86D20F08050A8652078800629D5A069F8
:1031B0000028D5F8980013D040F00100C5F8980019
:1031C000FFF7F6FA064606E075E000BFFFF7F0FAF3
:1031D000801B02286FD8D5F898008007F6D510E03C
:1031E00020F00100C5F89800FFF7E2FA064604E077
:1031F000FFF7DEFA801B02285DD8D5F8980080071B
:10320000F6D4E069F0B3A968C1F3810103295DD068
:103210000228286820F08070286003D0FFF7C8FAE1
:1032200004464BE0FFF7C4FA064604E0FFF7C0FA95
:10323000801B02283FD828688001F7D4F4E90801F0
:103240006FF00F0202EB01110843218A5204490872
:1032500002EB4151A26841EA02210843217D4FF06F
:103260007E42490802EB41610843217B40EAC1608C
:10327000E968324A11400843E860286840F08070ED
:10328000286000E05EE0E86840F08070E860FFF7EA
:103290008FFA044605E000BFFFF78AFA001B0228F8
:1032A00009D828688001F7D54CE000BFFFF780FA05
:1032B000001B022802D90320BDE8F883286880019A
:1032C000F4D4E8681E490840E8603BE00128F3D0E8
:1032D000E868226A00F00301914226D1616A00F099
:1032E000F0020901103991421FD1A26A00F4FE4197
:1032F000B1EB022F19D194F82C2000F07841B1EBFA
:10330000C26F12D1218E00F4C00249084905A1F50F
:103310000011914209D194F8341000F0C0604908BE
:103320004906A1F1007181420CD00120C4E70000E0
:103330000010024010000020007000400C809F012F
:10334000FCFFEEFE0020B7E710B5401EB0F1807F15
:1033500001D3012010BD4FF0E02460610F21601700
:1033600002F06BFE0020A06107202061002010BD4C
:10337000704770477047704770477047F0B590F8D6
:103380003C20012A3AD0012580F83C50022280F8E6
:103390003D2003685A689C68194E1A4FB34201D009
:1033A000BB4204D122F4700C4A6842EA0C02DFF8F6
:1033B00058C002EA0C02D1F800C04CEA020CC3F873
:1033C00004C00268B2420DD0B2F1804F0AD00F4B58
:1033D0009A4207D00E4B9A4204D0BA4202D00D4B0B
:1033E0009A4204D1896824F080031943916080F8DF
:1033F0003D50002180F83C100846F0BD0220F0BD91
:10340000002C0140003401408FFFFFFD000400400C
:103410000008004000400140704710B5040003D090
:1034200094F83D0010B107E0012010BD002084F8A1
:103430003C00204600F022F8022084F83D00211DC7
:10344000206801F05FFF012084F8480084F83E0006
:1034500084F83F0084F8400084F8410084F842007A
:1034600084F8430084F8440084F8450084F846005A
:1034700084F8470084F83D00002010BD08B50168BD
:103480001D48B1F1804F11D01C4A91421DD1816D70
:1034900041F010018165806D002200F01000009065
:1034A00005213620FFF7F8F936201FE0816D41F045
:1034B00001018165806D002200F00100009005216E
:1034C0001C20FFF7E9F91C2010E00D4A914211D1B0
:1034D000816D41F020018165806D002200F02000A7
:1034E000009005213720FFF7D7F93720BDE80840C5
:1034F000FFF7C4B908BD00000010024000100040F2
:103500000014004090F83D10012901D001207047BF
:10351000022180F83D100168CA6842F00102CA60C9
:103520000068104988420ED0B0F1804F0BD00E4990
:10353000884208D00D49884205D00D49884202D002
:103540000C49884207D181680B4A1140062906D0F0
:10355000B1F5803F03D0016841F001010160002016
:1035600070470000002C01400004004000080040AB
:1035700000340140004001400700010070B50446DE
:1035800090F83C000025012814D0012684F83C6006
:10359000022084F83D0022689068364B184020F4E1
:1035A0007F409060086870282ED010DC10F00F0F5C
:1035B00003D021E04FF0020070BD4FEA2012072A2D
:1035C0001AD2DFE802F0525252524A3840002A4BD7
:1035D000C21A984249D009DCB0F5805F0DD0B0F531
:1035E000005F1CD0B0F1101F06D13EE0102A3CD085
:1035F000202A3AD0502A38D0012584F83D60002096
:1036000084F83C00284670BDCB68D1E901212068D0
:1036100001F0D4FE2068816841F0770109E0CB68B1
:10362000D1E90121206801F0C9FE2068816841F4D8
:1036300080418160E1E7CA684968206802F072F859
:103640005021206806E0CA684968206802F098F8AE
:103650006021206801F0BCFECFE7CA684968206895
:1036600002F060F840212068F4E722680146104625
:10367000F0E7000088FFCEFF2000100070472DE922
:10368000F04104460068C66805694FF00007A907C5
:1036900013D5B10711D5F91E0161012020772068EB
:1036A00080698007204602D0FFF7E8FF04E000F0C1
:1036B000DDF8204600F09FF92777680716D57007D8
:1036C00014D521686FF0040008610220207720687B
:1036D000806910F4407F204602D0FFF7CFFF04E05E
:1036E00000F0C4F8204600F086F92777280715D5A2
:1036F000300713D521686FF0080008610420207797
:103700002068C0698007204602D0FFF7B7FF04E0B9
:1037100000F0ACF8204600F06EF92777E80616D5E1
:10372000F00614D521686FF010000861082020779A
:103730002068C06910F4407F204602D0FFF79EFF4A
:1037400004E000F093F8204600F055F92777E807E9
:1037500008D0F00706D021686FF00100086120460C
:1037600000F04AF9280601D4A80408D5300606D589
:1037700021686FF4025008612046FFF7FAFDE80562
:1037800008D5300606D521686FF4807008612046A0
:10379000FFF7EEFD680608D5700606D521686FF0C4
:1037A00040000861204600F043F9A80608D5B0069D
:1037B00006D521686FF0200008612046FFF7DAFD8A
:1037C000E80208D5F00206D521686FF48010086180
:1037D0002046FFF7D1FDA80208D5B00206D5216822
:1037E0006FF4001008612046FFF7C5FD680208D598
:1037F000700206D521686FF4800008612046FFF74B
:10380000BCFD28020AD5300208D521686FF40000FB
:1038100008612046BDE8F041FFF7FEBDBDE8F0813C
:1038200010B586B0044614216846FDF764F9206897
:10383000B0F1804F15D10C48C16C41F00101C16459
:10384000C06C694600F001000590022000900190D4
:10385000002002900390012004904FF09040FEF76A
:1038600083FE06B010BD000000100240704770B526
:10387000044690F83C0000260D4601280BD001209C
:1038800084F83C000C2A4AD007DC82B1042A20D0FC
:10389000082A06D131E0022070BD102A53D0142A24
:1038A00063D00126002084F83C00304670BD2068BB
:1038B00001F098FD2068816941F00801816120686C
:1038C000816921F004018161206881692A691143BD
:1038D00011E0206801F0D8FD2068816941F40061A1
:1038E00081612068816921F480618161206881693A
:1038F0002A6941EA02218161D4E7206801F00EFEC5
:103900002068C16941F00801C1612068C16921F0E6
:103910000401C1612068C1692A69114311E020686E
:1039200001F046FE2068C16941F40061C161206870
:10393000C16921F48061C1612068C1692A6941EAD5
:103940000221C161AEE7206801F07CFE2068016DB4
:1039500041F0080101652068016D21F00401016555
:103960002068016D2A69114311E0206801F0A2FE70
:103970002068016D41F4006101652068016D21F44A
:10398000806101652068016D2A6941EA02210165B3
:1039900088E710B5040003D094F83D0010B107E0AB
:1039A000012010BD002084F83C00204600F022F8E1
:1039B000022084F83D00211D206801F0A3FC0120B5
:1039C00084F8480084F83E0084F83F0084F8400002
:1039D00084F8410084F8420084F8430084F84400ED
:1039E00084F8450084F8460084F8470084F83D00D8
:1039F000002010BD704770470068094988420DD10A
:103A000008480078012806D107480178491C017050
:103A10004178491C4170054800F078BB70470000B0
:103A200000100040A100002004000020B40000208D
:103A3000704790F88410012918D0012180F8841073
:103A40002421C0F8881001680A680B6823F001037C
:103A50000B6022F0005100224266036819602021A9
:103A6000C0F8881080F88420104670470220704704
:103A700010B50446D0F88C00202801D0022010BDDB
:103A800061B15AB10120E06600202067204602F0B3
:103A900085F90028F3D1E16E012901D0012010BD84
:103AA000226810211162226852E8001F41F01001C3
:103AB00042E80013002BF6D110BD00001FB50068CE
:103AC000134A904223D1134C13A0C6222170CDE992
:103AD00000200291154B16A21AA1002002F076FBDD
:103AE0000020039003A9606804F079F9039838B1C5
:103AF00017494FF080500860BFF34F8FBFF36F8FAF
:103B000014494FF4807201F58070FFF7B1FF1FBDBB
:103B100000380140080000207265636569766564BD
:103B2000202564206279746573000000D386000844
:103B30002E2E2F436F72652F5372632F7573617230
:103B4000742E630063616C6C6261636B0000000043
:103B500004ED00E07C020020704770B5044690F848
:103B6000840001281DD0012084F884002420C4F89A
:103B7000880020680568026822F00102026020685F
:103B8000826822F060620A438260204601F018FEDB
:103B9000206805602020C4F88800002084F8840094
:103BA00070BD022070BD70B5044690F884000128F5
:103BB0001DD0012084F884002420C4F888002068E7
:103BC0000568026822F0010202602068826822F023
:103BD00060420A438260204601F0F2FD20680560E1
:103BE0002020C4F88800002084F8840070BD0220E2
:103BF00070BD7047704770472DE9F0410368044677
:103C0000D86919689A6840F60F0528424FF00005F8
:103C10004FF002060AD187067ED501F0200702F098
:103C2000805C57EA0C0777D0616F42E1B64FDFF84E
:103C3000DCC2174001EA0C0C57EA0C0C6CD05FEAAE
:103C4000C07C0CD05FEAC15C09D54FF0010CC3F811
:103C500020C0D4F8903043F00103C4F890308307BB
:103C600009D5D30707D023681E62D4F8903043F0FB
:103C70000403C4F8903043070AD5D30708D0266858
:103C800004233362D4F8903043F00203C4F8903038
:103C900003070CD501F020033B4308D02668082316
:103CA0003362D4F8903043F00803C4F89030030531
:103CB0000BD54B0109D526684FF400633362D4F865
:103CC000903043F02003C4F89030D4F89030002BAB
:103CD0003DD0800609D501F0200002F08051084354
:103CE00003D0616F09B120468847D4F8900021685D
:103CF0008968490602D410F0280F2AD0204601F026
:103D0000D1FE2068806840061ED52068083050E843
:103D1000001F21F0400100E021E040E80012002AED
:103D2000F3D1D4F8800078B179498163D4F8800068
:103D3000FEF7C6FA00280AD0D4F88000816B00E0B4
:103D40002046BDE8F04108472046FFF754FFBDE894
:103D5000F0812046FFF74FFFC4F89050F7E7D4F802
:103D60006CC02027BCF1010F7ED15FEAC06C7BD50F
:103D70005FEAC16C78D51020186220688068400620
:103D800051D5D4F880100A6850680004000C3ED069
:103D9000B4F85C3083423AD9A4F85E000868006841
:103DA00080062CD4216851E8000F20F4807041E88F
:103DB0000002002AF6D12068083050E8001F21F0E8
:103DC000010140E80012002AF5D12068083050E8CF
:103DD000001F21F0400140E80012002AF5D1C4F88C
:103DE0008C70E566216851E8000F20F0100041E872
:103DF0000002002AF6D1D4F88000FEF729FA2667DF
:103E0000B4F85C00B4F85E10401A81B207E0B4F870
:103E10005C1081429BD11068800698D526672046A9
:103E2000FFF74CFE93E7B4F85C00B4F85E10401A5C
:103E300081B2B4F85E00002889D0002987D02268BA
:103E400052E8000F20F4907042E80003002BF6D1F6
:103E50002D4BDB432068083050E8002F1A4040E823
:103E6000002CBCF1000F00E00EE0F3D1C4F88C7020
:103E7000E5666567206850E8002F22F0100240E8F0
:103E80000023002BF6D1C9E7C60209D5560207D593
:103E90004FF4801018622046BDE8F041FFF7AABE3B
:103EA00003060AD501F0800302F40002134304D094
:103EB000A16F00297FF444AF49E7420611D54A06B5
:103EC0000FD52046016851E8002F22F0400241E85A
:103ED0000023002BF6D1C0F88870856700F00DF93B
:103EE00035E7020206D54A0004D52046BDE8F04178
:103EF000FFF77FBEC00195D5002993DA2046BDE8C3
:103F0000F041FFF729BE000001000010200100046D
:103F10007959000810B5040003D0D4F8880010B116
:103F200007E0012010BD002084F88400204600F046
:103F300027F82420C4F888002068016821F00101D6
:103F40000160A06A10B1204601F05CFC204601F03F
:103F5000EBFD0128E6D02068416821F490414160E2
:103F60002068816821F02A0181602068016841F0A1
:103F7000010101602046BDE8104001F0A7BC00002F
:103F800070B598B00646142111A8FCF7B4FD442181
:103F90006846FCF7B0FD26493068884246D10120CA
:103FA0000025CDE900056846FEF740FD08B1FEF7A3
:103FB0004DF92049086E40F480400866086E00F410
:103FC00080401690C86C40F00100C864C86C11A90C
:103FD00000F0010016904FF4C06011900220CDE96E
:103FE00012050720CDE914504FF09040FEF7BCFABF
:103FF000124C114820601820C4E901058020C4E952
:1040000003506561A561E56120462562FEF7F2F97E
:1040100008B1FEF71BF9C6F88040002205212520D3
:10402000A662FEF739FC2520FEF728FC18B070BD0B
:104030000038014000100240080002401004002037
:10404000704770472DE9F84F0446D0F8880098462D
:1040500015460E46202802D00220BDE8F88F96B300
:104060008DB30020C4F890004FF02109C4F8889067
:104070001834FEF79DFBA5878246E58754F8100C9F
:10408000183CB0F5805F01D1206910B1354600269B
:1040900000E000255FF02007B4F8560053464FF0CB
:1040A0000002CDF80080D8B18021204601F0CAFE80
:1040B000D8B955B115F8010B21688862D4F8881079
:1040C00039EA010006D00120C7E736F8020BC0F339
:1040D0000800F1E7B4F85600401EA4F85600DBE7EC
:1040E0004021204601F0AEFE18B1C4F888700320CC
:1040F000B3E7C4F888700020AFE77047FEE7000020
:104100000148FFF7FFB90000E40100202DE9FE4F50
:10411000002506464FF002094FF0040A4FF0030B4A
:104120004FEA0508C5EBC50706EB870421896068DF
:10413000FEF734FB607016F82710052914D2DFE86B
:1041400001F003143355720000287BD141A02A21CD
:10415000CDE90010484B49A202954DA1032002F081
:1041600035F8012006F827006CE068B149A0382135
:10417000CDE90010404B41A2029545A1012002F07B
:1041800025F806F827805DE04BA03221CDE900102C
:10419000394B3AA202953EA1032002F017F806F827
:1041A0002790C4F810804DE010B101280ED049E0EE
:1041B0002069401C2061502844D3C4F8108006F8C0
:1041C00027A084F80B9046A0462132E0C4F8108066
:1041D000C4F8148006F827B048A04E21CDE900109D
:1041E000254B26A202952AA1032029E06169491CDA
:1041F000616110B101280BD024E00F2922D806F804
:1042000027A0C4F8148084F80CB045A0592110E010
:104210000F2917D906F827800120C4F81480A0724E
:1042200047A0602105E001280CD106F827804AA0AC
:104230006821CDE90010104B10A2029514A10020B6
:1042400001F0C4FF6D1CEDB2042DFFF46BAFBDE8AF
:10425000FE8F00006B6579202564207075736820DF
:10426000474F20544F204B45595F4A554447455FBF
:1042700050524553530000005A9900082E2E5C42BC
:1042800053505C5372635C6B65792E6300000000D1
:104290006B6579006B65792025642072656C6561BA
:1042A000736520474F20544F204B45595F4A554472
:1042B00047455F49444C45006B6579202564207073
:1042C00075736820474F20544F204B45595F4A551E
:1042D0004447455F4C4F4E4750555348000000003F
:1042E0006B6579202564204B45595F4556454E54F2
:1042F0005F4C4F4E47505553480000006B65792086
:10430000256420474F20544F204B45595F4A554460
:1043100047455F444F55424C45434C49434B000091
:104320006B6579202564204B45595F4556454E54B1
:104330005F444F55424C45434C49434B00000000FD
:104340006B6579202564204B45595F4556454E5491
:104350005F505553480000006B657920256420723A
:10436000656C65617365204B45595F52454C45410D
:10437000534500007047000000B585B01421684621
:10438000FCF7B9FB4FF6FF70009000200321CDE948
:104390000201019069460248FEF7E6F805B000BD4B
:1043A0000008004800B585B014216846FCF7A3FB5F
:1043B0004FF6FF7000900120019003200390002031
:1043C000029069460248FEF7CFF805B000BD000034
:1043D0000008004870B5002406462146204600F03B
:1043E00003F900F041F94FF49635304600F010F92A
:1043F000641CAC42F9D370BD70B586B01421684618
:10440000FCF779FB1E48C16C41F00401C164C16C2A
:1044100001F004010591C16C41F00101C164C16C5E
:1044200001F001010591C16C41F00201C164C06C51
:10443000032500F0020005904FF448700124002687
:1044400003958DE8510069460E48FEF78DF820026D
:1044500003958DE851004FF0904469462046FEF7E1
:1044600083F8FFF79FFFA06940F48070A0610548C2
:104470001830016841F40871016006B070BD000099
:104480000010024000040048203AD2B2034B02EB75
:10449000420203EB021200F019B800008A870008FC
:1044A000F0B50E460746002540F23F1407E02146CE
:1044B0003846FFF7E9FF103C6D1CA4B2761C327839
:1044C000002A01D0142DF2D3F0BD00002DE9F047F1
:1044D00091468A460026044600F086F8DFF84080C0
:1044E000012700BF00F0C0F85FF0000539F81600A2
:1044F00007FA05F10842404601D1408800E00088F3
:1045000000F086F86D1C102DF0D3641CE4B2514607
:10451000204600F069F8761C182EE3D3BDE8F0873A
:10452000AC00002010B5FFF767FF002000F014F882
:10453000084CA080A088A0F50241303906D000F0D8
:104540002DFB002000F008F8A08010BD00F09DFABF
:10455000F7E70000AC00002070B51D490A6842F47E
:1045600000720A600A6842F480720A60184C103CBB
:10457000226842F020022260164A1060086840F06B
:104580002000086000BF00BF00BF206840F020008E
:104590002060206840F480702060FFF7EDFE4FF04F
:1045A0009041886A40F48070886200BF00BF00BFFD
:1045B0000848001F006885B2886940F480708861EF
:1045C000FFF7F0FE206840F400702060284670BDC0
:1045D000280400481408004801B5BDF8000001494E
:1045E000488008BDAC00002010B50C4601462020D4
:1045F00000F068F82146BDE81040212000F062B8C4
:1046000001B5BDF800000149088008BDAC000020DC
:10461000134A116841F400711160114910390B6897
:1046200043F480730B600B6843F020030B600D4B69
:104630001860106840F02000106000BF00BF00BF8D
:10464000086840F020000860086840F48070086046
:1046500000BF00BF00BF086840F4007008607047EA
:1046600028040048140800481449086840F4007001
:104670000860086840F480700860104810380268CC
:1046800042F0200202600E4B22221A600A6842F0B9
:1046900020020A6000BF00BF00BF016841F0200196
:1046A0000160016841F48071016000BF00BF00BF7C
:1046B000016841F40071016070470000280400485F
:1046C00014080048184B10B51A6842F400721A60BA
:1046D0001A6842F480721A60134A103A146844F05F
:1046E00020041460114C2060186840F0200018600D
:1046F00000BF00BF00BF106840F0200010601068CD
:1047000040F4807010602160186840F0200018604C
:1047100000BF00BF00BF106840F0200010601068AC
:1047200040F48070106010BD280400481408004850
:1047300070B505465FF0000405EBC40082798188FE
:1047400055F83400FEF72FF8641CE4B2082CF3D3BC
:1047500070BD10B50446818800680022FEF723F87A
:104760000020A07110BD00000D4808B5816C41F01B
:1047700004018164816C01F004010091816C41F0BD
:1047800001018164806C002200F00100009005218D
:104790000B20FEF781F8BDE808400B20FEF76EB84D
:1047A0000010024010B500F013FC00F06DF9FFF7A7
:1047B000E1FD01F097FB00F0BDFC044A0021044834
:1047C00002F0D4F90349086010BD0000A486000877
:1047D000495200080000002070B586B014216846D8
:1047E000FCF789F92248C16C41F00401C164C16C35
:1047F00001F004010591C16C41F02001C164C16C5C
:1048000001F020010591C16C41F00101C164C16C4E
:1048100001F001010591C16C41F00201C164C06C5D
:10482000144E00F002004FF47F440590012221460F
:104830003046FDF7B8FF009401240025CDE901457D
:10484000694630460395FDF78FFECDE90045694680
:104850004FF090400294FDF787FE0720CDE9000558
:10486000694602940448FDF77FFE06B070BD000063
:1048700000100240000800480004004810B58EB047
:1048800000240794089409940A940B940C941C2116
:1048900068460D94FCF72FF91D484FF080410160E8
:1048A0004F21C0E901144FF47A71C0E90314846107
:1048B000FEF7B3FD08B1FDF7C9FC4FF48050079037
:1048C00007A91348FEF75AFE08B1FDF7BFFC1048D0
:1048D000FFF75FF808B1FDF7B9FC0B940BA90C4882
:1048E0000D94FEF74BFD08B1FDF7B0FC6020CDE95B
:1048F000000402940422694605480494FEF7B7FFB9
:1049000008B1FDF7A3FC0248FEF78AFF0EB010BD08
:10491000980100203EB500240F48009401940D49F1
:10492000029401605021C0E9011442F210718461C7
:10493000C160FEF772FD08B1FDF788FC009469467E
:1049400005480294FEF71AFD002801D0FDF77EFC11
:104950003EBD000000100040E40100203EB50024F0
:104960000E48009401940C490294C0E900144FF6DB
:10497000FF71C0E902418461FEF74FFD08B1FDF708
:1049800065FC0094694605480294FEF7F7FC002890
:1049900001D0FDF75BFC3EBD00140040300200205A
:1049A000184810B5164901604FF4165141600021B6
:1049B00081600C22C160C0E904128161C1610162A1
:1049C00041628162FFF7A6FA08B1FDF73FFC0021C2
:1049D0000C48FFF7E8F808B1FDF738FC002109485A
:1049E000FFF7BBF808B1FDF731FC0648FFF721F8E7
:1049F000002803D0BDE81040FDF728BC10BD000022
:104A0000003801407C030020FEE7FEE7FDF7DCBF35
:104A100010B50020FFF7DEFC0EA13020FFF740FDAF
:104A20000FA11248FBF7B0FD10496020FFF738FDD9
:104A30000FA10E48FBF7A8FD0C497820FFF730FDC9
:104A40000EA10A48FBF7A0FDBDE8104007499020E1
:104A5000FFF726BD202020202020205053440000B6
:104A60002020202042313A20400000004431002024
:104A70002020202042323A20400000002020202028
:104A800042333A2040000000704730B50121002039
:104A9000FFF718FE4FF47A70FDF7CAFB00210120E2
:104AA000FFF710FE41F290711020FFF70BFE4FF45C
:104AB0001C516020FFF706FE01216120FFF702FE76
:104AC00002214620FFF7FEFD48F210011320FFF7F8
:104AD000F9FD48F2FE011220FFF7F4FD4FF4A0614A
:104AE0000220FFF7EFFD41F230010320FFF7EAFD5E
:104AF00040F2033421463020FFF7E4FD2146312007
:104B0000FFF7E0FD21463220FFF7DCFDE51E2946D8
:104B10003320FFF7D7FD03213420FFF7D3FD2146D3
:104B20003520FFF7CFFD14213620FFF7CBFD2146BE
:104B30003720FFF7C7FD21463820FFF7C3FD214688
:104B40003920FFF7BFFD29463A20FFF7BBFD0321BF
:104B50003B20FFF7B7FD21463C20FFF7B3FD4FF4A4
:104B6000A0513D20FFF7AEFD4FF400719220FFF7FA
:104B7000A9FD21469320FFF7A5FD40F60D019020E9
:104B8000FFF7A0FD41F218010320FFF79BFDBDE8F0
:104B9000304040F273110720FFF794BD10B543F287
:104BA0000801E320FFF78EFD1221E720FFF78AFDC1
:104BB00041F23121EF20FFF785FD00210120FFF7B1
:104BC00081FD4FF4E0610220FFF77CFD41F23001EE
:104BD0000320FFF777FD00210420FFF773FD40F26B
:104BE00007210820FFF76EFD00210920FFF76AFD6D
:104BF00000210A20FFF766FD00210C20FFF762FD6F
:104C000000210D20FFF75EFD00210F20FFF75AFD68
:104C100000211020FFF756FD07211120FFF752FD5C
:104C200000211220FFF74EFD00211320FFF74AFD5F
:104C3000C820FDF787FC41F290611020FFF742FD8C
:104C400040F227211120FFF73DFD3220FDF77AFCCD
:104C50001D211220FFF736FD3220FDF773FC4FF4C3
:104C600000611320FFF72EFD14212920FFF72AFDF4
:104C70000B212B20FFF726FD3220FDF763FC0021DE
:104C80002020FFF71FFD00212120FFF71BFD07213A
:104C90003020FFF717FD40F207713120FFF712FDBA
:104CA00006213220FFF70EFD40F204713520FFF798
:104CB00009FD41F604713620FFF704FD0421372079
:104CC000FFF700FD00213820FFF7FCFC40F20671E1
:104CD0003920FFF7F7FC40F201713C20FFF7F2FCAE
:104CE0000F213D20FFF7EEFC00215020FFF7EAFCEA
:104CF000EF215120FFF7E6FC00215220FFF7E2FCF4
:104D000040F23F115320FFF7DDFC4FF41C516020AF
:104D1000FFF7D8FC01216120FFF7D4FC00216A20B5
:104D2000FFF7D0FC00218020FFF7CCFC0021812080
:104D3000FFF7C8FC00218220FFF7C4FC002183207C
:104D4000FFF7C0FC00218420FFF7BCFC0021852078
:104D5000FFF7B8FC10219020FFF7B4FC002192204F
:104D6000FFF7B0FC03219320FFF7ACFC4FF48871F0
:104D70009520FFF7A7FC00219720FFF7A3FC002157
:104D80009820FFF79FFC41F218010320FFF79AFCDF
:104D9000BDE8104040F273110720FFF793BC0000FC
:104DA0001FB500242546A04600F00EFA61A0006859
:104DB0000390FFF72DFE60A13020FFF771FB614FDC
:104DC000614EA146387810B101287DD196E0B07AC5
:104DD000012808D096F82600012824D096F8420031
:104DE000012840D063E059A03A21CDE90010641CAD
:104DF000E4B2574B57A202945DA1002001F0E6F9FE
:104E000022465CA15E48FBF7BFFB5D496020FFF7CF
:104E100047FB092C00D9002404F130008DF80C0068
:104E200086F80A9043E049A04721CDE900106D1CA7
:104E3000EDB2474B47A2029552A1002001F0C6F9FE
:104E40002A4651A14E48FBF79FFB4D497820FFF7BA
:104E500027FB092D00D9002505F130008DF80D0044
:104E600086F8269023E039A15422CDE9002108F1EB
:104E7000010000F0FF08364BCDF8088035A245A1AF
:104E8000002001F0A3F9424643A13D48FBF77CFB1B
:104E90003B499020FFF704FBB8F1090F01D94FF00F
:104EA000000808F130008DF80E0086F8429096F860
:104EB0005E00012839D13BA103A8FBF743FE70B186
:104EC0000024A046454600E02FE0FFF7A1FD87F84B
:104ED000019000F079F900BF86F85E9025E04FF070
:104EE000010A87F800A00020FFF774FA87F801A0F4
:104EF00000F06AF92C48FFF72CFCEDE72BA13020DD
:104F0000FFF7CEFA4FF4FA622BA11D48FBF73CFBEA
:104F10001B496020FFF7C4FA0A222AA11848FBF7B0
:104F200033FB17497820FFF7BBFA642002F0F2FB4D
:104F300048E7000030303000202020202020205082
:104F400053440000A0000020B400002025640000AD
:104F5000508700082E2E5C4150505C5372635C7386
:104F6000637265656E5F7461736B2E630000000091
:104F7000423100002020202042313A2025640000E8
:104F800044310020423200002020202042323A20CA
:104F900025640000423300002020202042333A20C4
:104FA00025640000313131002C0100202020202018
:104FB000202020535441000020202020463A256420
:104FC000485A000020202020443A2564252500006E
:104FD0001CB5FFF7A7FA0020FFF7FCF90020FFF748
:104FE000FBFA4FF6FF70FFF70BFB0B490220CDE9F0
:104FF0000001C201002309A10B4803F0D1F80128E8
:1050000009D00AA19120CDE900010B4B0BA212A1FE
:10501000012001F0DBF81CBDA40000207363726561
:10502000656E5F7461736B00A14D0008437265612A
:1050300074204572726F72005C8700082E2E5C41EE
:1050400050505C5372635C73637265656E5F74612C
:10505000736B2E63000000007461736B000000002E
:105060001FB5194FDFF86480194D09264FF0FF3A3C
:105070004FF00F0917A0CDE900601C4B1CA223A123
:10508000032001F0A3F85146386802F093FF01288D
:1050900015D1002410E000BF18F8040003901FA2EF
:1050A000CDF80090CDE90124104B11A217A10020EA
:1050B00001F08CF8641CE4B228788442ECD36420BC
:1050C00002F028FBD6E700000C0000207C02002044
:1050D0000800002077616974696E6720666F72202E
:1050E00073656D6170686F72650000006D87000800
:1050F0002E2E5C4150505C5372635C736572696123
:105100006C5F7461736B2E630000000073657269DD
:10511000616C5F7461736B3A0000000075617274BA
:10512000315F72785F6275665B25645D203D202586
:10513000630000001CB50B490120CDE900014202CB
:10514000002309A10B4803F02BF8012809D00AA17C
:105150001C20CDE900010F4B0FA216A1012001F088
:1051600035F81CBDA800002053657269616C5F545E
:1051700061736B006150000853657269616C5F5424
:1051800061736B5F4372656174655F4661696C65ED
:1051900064000000798700082E2E5C4150505C535B
:1051A00072635C73657269616C5F7461736B2E63AB
:1051B0000000000053657269616C5F5461736B5F3E
:1051C000496E6974000000001CB50E480E49427813
:1051D00008688AB1012A0ED12722826209686420F8
:1051E00088630AA12320CDE900010B4B0BA212A179
:1051F000002000F0EBFF1CBD4FF4FA7181630FA19A
:105200001E20F0E7A000002098010020324B687AB1
:105210002031302525000000488700082E2E5C41F3
:1052200050505C5372635C73637265656E5F74614A
:10523000736B2E630000000050574D00314B687AAD
:105240002035302525000000012001F053FCFBE74C
:1052500010B5FDF7B3FA02F0FBFF012803D0BDE85B
:10526000104002F0FFBB10BD00B593B03821684676
:10527000FBF741FC14210EA8FBF73DFC4FF4007036
:10528000FDF73CFB0220C1010391402104910090F5
:10529000079008901421CDE909010B900C900D9016
:1052A0006846FDF74FFE08B172B6FEE70F200E907C
:1052B00003200F90002010901190129002210EA850
:1052C000FDF7F8FC002801D072B6FEE713B000BD70
:1052D0000248016841F470010160704788ED00E008
:1052E0000148FEF7CCB90000980100200148FEF704
:1052F000C6B90000E40100200148FEF7C0B9000073
:10530000300200202DE9F0430268254B254D264E42
:10531000264C4FF08049984207D0484505D0A84216
:1053200003D0B04201D0A04203D122F070074A68F6
:105330003A431F4FDFF87CC0DFF87C8098420DD0E5
:1053400048450BD0A84209D0B04207D0A04205D0B2
:10535000B84203D0604501D0404503D122F44075E6
:10536000CA682A434D6922F080022A438D68C562CB
:105370000D688562984207D0A04205D0B84203D09C
:10538000604501D0404501D109690163016841F0E0
:1053900004010160012141610260BDE8F083000069
:1053A000002C01400004004000080040003401408F
:1053B00000400140004401400048014010B58468AD
:1053C00042EA032224F47F440A432243826010BD50
:1053D0008268034B1A400A4342F00701816070471C
:1053E0008FFFCFFF2DE9F043056A026A22F0010228
:1053F0000262436882691E4C25F0020522400C6857
:1054000022F0030214438A681B4E2A43194D1B4F96
:10541000DFF86CC0DFF86C90A84207D0B04205D02E
:10542000B84203D0604501D048450AD1D0F8208069
:1054300028F00408C0F8208022F00808CA6842EA70
:105440000802A84207D0B04205D0B84203D0604558
:1054500001D0484505D14D6923F440731D438B6944
:105460002B4343608461496841630262BDE8F08375
:105470008FFFFEFF002C014000340140004001403E
:105480000044014000480140F0B5056A026A22F07C
:1054900010020262426883691A4C1C4E23400C6859
:1054A00023F4407343EA042425F020038D6843EA83
:1054B0000513154DA84201D0B04208D1076A27F064
:1054C00040070762CF6823F0800343EA0713A8422E
:1054D0000AD0B04208D00E4DA84205D00D4DA842CA
:1054E00002D00D4DA84207D14D6922F4406242EA34
:1054F00085028D6942EA8502426084614968816360
:105500000362F0BDFF8FFFFE002C0140003401401C
:10551000004001400044014000480140F0B5056AE8
:10552000026A22F4807202624268C3691A4C1C4EFD
:1055300023400C6823F003031C4325F400738D689B
:1055400043EA0523154DA84201D0B04208D1076AAD
:1055500027F480670762CF6823F4006343EA0723D8
:10556000A8420AD0B04208D00E4DA84205D00E4D38
:10557000A84202D00D4DA84207D14D6922F44052F5
:1055800042EA05128D6942EA05124260C461496827
:10559000C1630362F0BD00008FFFFEFF002C0140DD
:1055A00000340140004001400044014000480140F7
:1055B000F0B5056A026A22F4805202624268C36949
:1055C0001A4C1C4E23400C6823F4407343EA042415
:1055D00025F400538D6843EA0533154DA84201D0E8
:1055E000B04208D1076A27F480470762CF6823F4E6
:1055F000004343EA0733A8420AD0B04208D00E4D18
:10560000A84205D00D4DA84202D00D4DA84207D1A9
:105610004D6922F4404242EA85128D6942EA8512C0
:105620004260C461496801640362F0BDFF8FFFFE00
:10563000002C014000340140004001400044014082
:105640000048014030B5056A026A22F480320262E5
:105650004268036D114C23400C681C4325F4003351
:105660000D8943EA05430E4DA8420BD00D4DA842CB
:1056700008D00D4DA84205D00C4DA84202D00C4DCB
:10568000A84204D14D6922F4803242EA05224260E8
:10569000046549688164036230BD00008FFFFEFF2E
:1056A000002C014000340140004001400044014012
:1056B0000048014030B5046A026A22F48012026296
:1056C0004268036D114D24F400142B400D6843EA29
:1056D00005230D8944EA05540D4DA8420BD00D4D0C
:1056E000A84208D00C4DA84205D00C4DA84202D0CB
:1056F0000B4DA84204D14D6922F4802242EA852252
:10570000426003654968C164046230BDFF8FFFFEDB
:10571000002C0140003401400040014000440140A1
:105720000048014010B5036A046A24F001040462D1
:105730000E4CA0420BD00E4CA04208D00D4CA04203
:1057400005D00D4CA04202D00C4CA04203D1046AFB
:1057500024F004040462846924F0F00444EA02148E
:1057600023F00A020A438461026210BD002C01404A
:105770000034014000400140004401400048014025
:1057800010B5036A046A24F0100404620A4CA042B3
:1057900002D00A4CA04203D1046A24F040040462FF
:1057A000846923F0A00324F4704444EA023243EAFB
:1057B00001118261016210BD002C014000340140E2
:1057C00030B5416EB9B1026891689268C1F3426127
:1057D0000B4B520F9C5CE50003F10804A25CB5FB87
:1057E000F2F2A0F86A205A5C615CD200B2FBF1F1DF
:1057F000A0F8681030BD0121A0F86A10F8E7000099
:105800002087000890F82810090706D501684A6823
:10581000836B22F400421A434A6090F82810C907AB
:1058200006D001684A68C36A22F400321A434A600B
:1058300090F82810890706D501684A68036B22F49E
:1058400080321A434A6090F82810490706D501684B
:105850004A68436B22F480221A434A6090F8281069
:10586000C90606D501688A68C36B22F480521A43C0
:105870008A6090F82810890606D501688A68036C4A
:1058800022F400521A438A6090F82810490611D574
:1058900001684A68436C22F480121A434A60416CE2
:1058A000B1F5801F06D101684A68836C22F4C002FA
:1058B0001A434A6090F82810090606D501684A681C
:1058C000C06C22F4002202434A6070472DE9F8437D
:1058D00000260446C0F89060FCF76AFF8046206806
:1058E00000684FF0200500076FF07E4713D5434650
:1058F000002229042046009700F0A4FA58B121683C
:1059000051E8000F20F0800041E80002002AF6D1A3
:10591000C4F8885021E020680068400722D543463B
:1059200000224FF480012046009700F08BFAC8B1A6
:10593000216851E8000F20F4907041E80002002A2D
:10594000F6D12068083050E8001F21F0010140E83E
:105950000012002AF5D1C4F88C5084F8846003202A
:10596000BDE8F883C4F88850C4F88C5044F86C6FD4
:10597000666026760020F3E710B5806AFEF73BF9F3
:1059800010BD70B5846AD4F88800D4F88C502168B2
:105990008968090604D5212802D1204600F0ACF818
:1059A00020688068400604D5222D02D1204600F0F0
:1059B00079F8D4F8900040F01000C4F89000204628
:1059C000FEF719F970BD70B50146806A0A68126861
:1059D0004FF0000392062DD4A0F85E30046854E81E
:1059E000002F22F4807244E80025002DF6D10268D1
:1059F000083252E8004F24F0010442E80045002D2F
:105A0000F5D10268083252E8004F24F0400442E821
:105A10000045002DF5D12022C0F88C20C26E012A4D
:105A200008D1046854E8002F22F0100244E8002551
:105A3000002DF6D10367C26E012A02D0FEF700FBEB
:105A400070BDA0F85E3009684968B0F85C2089B282
:105A50008A4201D9A0F85E10B0F85E10511A89B2DE
:105A6000FEF72CF870BD10B50246806A012101676F
:105A7000C16E012902D0FEF7E4FA10BDB0F85C1047
:105A80004B08A0F85E301268526892B2914201D37E
:105A9000A0F85E20B0F85E20891A89B2FEF70EF8F1
:105AA00010BD000010B5026852E8001F21F490718B
:105AB00042E80013002BF6D10E4B0268083252E880
:105AC000001F194042E80014002CF6D1C16E0129D4
:105AD00008D1016851E8002F22F0100241E80023AC
